:100000000C945A080C9482080C9482080C94820870
:100010000C9482080C9482080C9482080C94820838
:100020000C9482080C9482080C949D130C940C146C
:100030000C9482080C9482080C9482080C94820818
:100040000C9482080C9482080C9482080C94820808
:100050000C9482080C9482080C9482080C943E162E
:100060000C9482080C9482080C9482080C948208E8
:100070000C9482080C9482080C9482080C948208D8
:100080000C9488160C9482080C9482080C948208B4
:100090000C9482080C9482080C9482080C948208B8
:1000A0000C9482080C9482080C94820805A84CCD0C
:1000B000B2D44EB93836A9020C50B9918688083CA2
:1000C000A6AAAA2ABE000000803F0508202024001E
:1000D00000050800002400000508FCFCFC000005E9
:1000E000080000240404050820202404040508E076
:1000F000E0E7000005082424240000050804042487
:1001000020200508FF3C00003F050800003C0000DF
:100110006D0801010101010103070F0F1F1F0F17D8
:1001200007270707371F27091F3F3F3F3F3F1F0F85
:100130000F1F1F3F3F3F1F0F3F3F5F7F3F7F7F7F6F
:100140003F1F1F0F0F2F3F0723012707270604011B
:10015000030707070B0F0F0F0F0F0F4F7F3F3F1FB7
:100160001F1F0F0F1F2F0F2F0F3F0F0F07090F0F0D
:100170001F1F0B07070B0901010000000000008092
:1001800008F6DDF6DDF6DDF6DDF6FDF6FDF6FDF64C
:10019000FDF6DDF6DD76DDF6DDF6FDF6FDF6FDFEBF
:1001A000FDFEFDFEFDFEFDFEFDF6FDFEFDFEFDFE7F
:1001B000FFFEFFFEFFFEFFFEFFFEFFFEFDFEFDFE5B
:1001C000FFFEFFFEFFFEFFFEFDF6FDF6FDF6FDF66F
:1001D000FDF6DDF6DDF6DDF6FDF6FDF6FDF6FDF6E7
:1001E000FDF6FDF6FDF6DDF6DD76DDF6FDF6FDF657
:1001F000FDFEFDFEFDFEFDFEFDFEFDF6FDF6FDF63F
:10020000DD0000000000000060F0E04000000000A1
:10021000000000087CFCF870000000C08000001C9A
:100220003E7FFF1F0E000080C000000E1FFF7F3EBC
:100230001C000000C00000000E1F1F0F000000C0C7
:100240008000000001030301000610000000000010
:10025000000000604000000000000000000008787E
:10026000700000000000000000001C3E1F0E000097
:100270000000000000000E1F3E1C000000000000F7
:100280000000000E0F000000000000000000000150
:100290000100001008003E3E16163E16163E3E3E79
:1002A00000000000000D08003E3E26263E26263EA9
:1002B0003E0000000520E7E0A74F1FFFFFAA550002
:1002C000FFFFAA55003F3F2A15001720F006F6E66B
:1002D000F6F6F6F6F6E6F6F006F686D686D686D674
:1002E00086D686FF00FFFFFFF3C0C0F3FFFFFF00CD
:1002F000FF203420342034203420FF00FFFFFFFF94
:10030000FFFFFFFFFFFF00FF084D084D084D084DA0
:10031000080F00FFFFFFFFFFFFFFFFFFFF00FF824F
:10032000D382D382D382D3821D1000FEFE0676765E
:100330007606767676067676760676767606FEFE0D
:1003400000AA54AA54AA00007F7F0077777700772D
:1003500077770077777700777777007F7F002A5568
:100360002A552A0007FFFFFFFFFFFFFFFFFFFFFFE8
:10037000FFFFFFFFFFFFFFFF07FFFFFFFFFFFFFF85
:10038000FFFFFFFFFFFFFFFFFFFFFFFFFFFFFFFF7D
:10039000FFFFFFFFFFFFFFFFFFFFFFFFFFFFFFFF6D
:1003A000FFFFFF151800020202E2E20202E2E2028F
:1003B00002E2E20202020000000000000000383801
:1003C000000038380000383800000000000000004D
:1003D000000000E7E70000E7E70000E7E7000000B3
:1003E00000000000F8FCFEFFFFFFFFFFFFFFFFFF24
:1003F000FFFFFFFFFFFFFEFCF80F0F0F0F0F0F0FA8
:100400000F0F0F0F0F0F0F0F0F0F0F0F0F0F1510F5
:1004100000E8EC2E2EEE2E2EEE2E2EEE2E2EECEAF8
:10042000044AA44800000F0F09090F09090F090920
:100430000F09090F0F00050A0500FFFFFFFFFFFF6F
:10044000FFFFFFFFFFFFFFFFFFFFFFFFFF00F3FFC7
:10045000FFFFFFFFFFFFFFFFFFFFFFFFFFFFFFFFAC
:10046000FFFE0F0F0F0F0F0F0F0F0F0F0F0F0F0FBD
:100470000F0F0F0F0F0F141800FAFA9AFA9AFA9A40
:10048000FA9AFAFAFAFA00AA52AA000000A1ADAD4F
:10049000ADADADADAD0DAD2DAD0DFC0055A4540011
:1004A000000F090F090F090F0F000A050A000F00BE
:1004B000050A050000000000003E5B4F5B3E3E6BFE
:1004C0004F6B3E1C3E7C3E1C183C7E3C181C577DEE
:1004D000571C1C5E7F5E1C00183C1800FFE7C3E73A
:1004E000FF0018241800FFE7DBE7FF30483A060E4C
:1004F0002629792926407F050507407F05253F5A93
:100500003CE73C5A7F3E1C1C08081C1C3E7F142202
:100510007F22145F5F005F5F06097F017F006689AD
:10052000956A606060606094A2FFA29408047E04F3
:100530000810207E201008082A1C08081C2A080819
:100540001E101010100C1E0C1E0C30383E383006D9
:100550000E3E0E06000000000000005F00000007D5
:10056000000700147F147F14242A7F2A1223130803
:10057000646236495620500008070300001C2241DF
:10058000000041221C002A1C7F1C2A08083E080883
:100590000080703000080808080800006060002033
:1005A000100804023E5149453E00427F4000724916
:1005B0004949462141494D331814127F10274545BA
:1005C00045393C4A494931412111090736494949D0
:1005D00036464949291E000014000000403400003E
:1005E00000081422411414141414004122140802A7
:1005F000015909063E415D594E7C1211127C7F491A
:100600004949363E414141227F4141413E7F49496E
:1006100049417F090909013E414151737F0808089A
:100620007F00417F41002040413F017F081422416B
:100630007F404040407F021C027F7F0408107F3EC5
:100640004141413E7F090909063E4151215E7F0932
:10065000192946264949493203017F01033F404099
:10066000403F1F2040201F3F4038403F6314081484
:100670006303047804036159494D43007F414141BC
:100680000204081020004141417F0402010204409D
:1006900040404040000307080020545478407F2821
:1006A0004444383844444428384444287F38545417
:1006B000541800087E090218A4A49C787F0804043A
:1006C0007800447D40002040403D007F10284400D9
:1006D00000417F40007C047804787C08040478386A
:1006E00044444438FC1824241818242418FC7C089A
:1006F000040408485454542404043F44243C404017
:10070000207C1C2040201C3C4030403C44281028C9
:10071000444C9090907C4464544C44000836410012
:100720000000770000004136080002010204023C8C
:100730002623263C1EA1A161123A4040207A38545B
:1007400054555921555579412154547841215554D6
:10075000784020545579400C1E5272123955555527
:1007600059395454545939555454580000457C4112
:100770000002457D420001457C40F0292429F0F02B
:10078000282528F07C545545002054547C547C0A7C
:10079000097F4932494949323248484832324A4849
:1007A00048303A4141217A3A42402078009DA0A049
:1007B0007D39444444393D4040403D3C24FF24249D
:1007C000487E4943662B2FFC2F2BFF0929F620C0BA
:1007D000887E090320545479410000447D4130480B
:1007E000484A32384040227A007A0A0A727D0D194E
:1007F000317D2629292F28262929292630484D40B0
:1008000020380808080808080808382F10C8ACBAAB
:100810002F102834FA00007B000008142A1422222A
:10082000142A14089500220095AA005500AAAA557A
:10083000AA55AA000000FF00101010FF00141414A5
:10084000FF001010FF00FF1010F010F0141414FC43
:10085000001414F700FF0000FF00FF1414F404FC60
:10086000141417101F10101F101F1414141F001041
:100870001010F0000000001F101010101F101010BA
:1008800010F010000000FF101010101010101010C9
:10089000FF10000000FF140000FF00FF00001F1009
:1008A000170000FC04F414141710171414F404F4C3
:1008B0000000FF00F714141414141414F700F714B4
:1008C0001414171410101F101F141414F414101003
:1008D000F010F000001F101F0000001F14000000A7
:1008E000FC140000F010F01010FF10FF141414FF9F
:1008F000141010101F00000000F010FFFFFFFFFF9A
:10090000F0F0F0F0F0FFFFFF0000000000FFFF0F2D
:100910000F0F0F0F38444438447C2A2A3E147E02BD
:10092000020606027E027E02635549416338444452
:100930003C04407E201E2006027E020299A5E7A507
:10094000991C2A492A1C4C7201724C304A4D4D3078
:100950003048784830BC625A463D3E494949007E9D
:100960000101017E2A2A2A2A2A44445F4444405134
:100970004A444040444A51400000FF0103E080FFE8
:10098000000008086B6B083612362436060F090F74
:1009900006000018180000001010003040FF010190
:1009A000001F01011E00191D1712003C3C3C3C00B9
:1009B00000000000F0F89C8E8783878E9CF8F00082
:1009C00000FEFF0303030303070EFCF80000FEFF15
:1009D0000303030303070EFCF80000FFFF00000001
:1009E00000000000FFFF0000FEFF8383838383C7B6
:1009F000EE7C380000F8FC0E07030303070EFCF83A
:100A000000003F7FE0C08080C0E07F3FFFFF01012A
:100A10000101010101FFFF0000FFFF0C0C0C0C1C89
:100A20003E77E3C100007FFFC0C0C0C0C0E0703FA0
:100A30001F00001F3F70E0C0C0C0E0703F1F0000FB
:100A40007FFFC1C1C1C1C1E3773E1C00001F3F70E1
:100A5000E0C0C0C0E0703F1F000000000001FFFFC9
:100A600001000000D5F08D14A1C881CFD9F1AF20CD
:100A70000021007F2200074A010A000080DC0014E8
:100A800000C2011400DC001400C2011400DC0014D8
:100A900000C2011400DC001400C2011400DC0014C8
:100AA00000C2011400008093002C01C400960000D5
:100AB000009600880196000000960026019600002E
:100AC000002C01150196000000960006019600001A
:100AD000009600E9002C0100006400C400960000AC
:100AE00080000018B8B4B2F2BFBFBEA6FEBF9E9C85
:100AF0004C0C0C0C0E070000000018B4B2B2F3BE90
:100B0000BEE7BE9C5C0C0C0E07000000000000005D
:100B100018B6B273B2B2F7BE5C1C0F000000000042
:100B20000000000000001CB6F3B232B2F3B61C00A5
:100B3000000000000000000000000F1C5CBEF7B2C7
:100B4000B273B2B61800000000000000070E0C0CD3
:100B50005C9CBEE7BEBEF3B2B2B418000000000752
:100B60000E0C0C0C4C9C9EBFFEA6BEBFBFF2B2B4D6
:100B7000B818000015080000000000000000000088
:100B80000000000000000000000000000000020261
:100B9000020202020A0D0A02020202020200000020
:100BA0000000000002020200020A0F0A0200020214
:100BB00002000000000000000000000202020A0F14
:100BC0000A02020200000000000000000002000211
:100BD0000000000A0F0A00000002000200000015D9
:100BE00008000000000000000000000000000000FD
:100BF000000000000000001C7F03007C3F0B483C0D
:100C00001F33243C1F63037F1C000B3F7C00331FFA
:100C10003C48631F3C24040800000000E0F0F0F1B1
:100C2000F0FAFCF8F0F0F0F0E00001010101030738
:100C3000030101010100E0F0F1F0F0FAFCFAF0F03C
:100C4000F1F0E000010101010307030101010100CE
:100C5000E0F0F0F0F0F8FCFAF0F1F0F0E000010163
:100C6000010103070301010101000D0D0000400017
:100C70004000400040004000000000000000000074
:100C8000000000000000DC000A0018010500000060
:100C900050000180DC000F0000007800018040015E
:100CA0000A0018011400F000140004011E00008066
:100CB000F0000A000401140018011E002C01280095
:100CC0001801320000804A011400540114005E0132
:100CD000140068011400720114007C0114008601E4
:100CE0001400900114009A011400A4011400AE0134
:100CF0001400B80114004A011E0054011E005E01D8
:100D00001E0068011E0072011E007C011E0086018B
:100D10001E0090011E009A011E00A4011E00AE01DB
:100D20001E00B8011E004A011E0054011E005E0193
:100D30001E0068011E0072011E007C011E0086015B
:100D40001E0090011E009A011E00A4011E00AE01AB
:100D50001E00B8011E000080B80164009402140057
:100D60002602140094021400260214009402320099
:100D70000080B80114004A011400260232000080ED
:100D8000E9004B0000004B00E9004B0000004B0065
:100D9000E9009600000096001501960006019600F5
:100DA00015012C015D01900100804A0114008101B0
:100DB0000F004A01140081010F004A011400810153
:100DC0000F0000804A011400B801140081010F00D7
:100DD000B8010F00E0010A00EA010A00EF01320049
:100DE00000807FFFFFFFFF3F7FFFFFFFFFFFFFFF51
:100DF000FFFFFFFFFFFFFFFFFFFFFFFFFFFFFE0003
:100E00007FFFFFFFFFFFFFFE00077FFFFFFFFFFFEA
:100E1000FFFFFFFFFFFE007FFFFFFFFFFFFFFFFF62
:100E2000FFFFFFFFFFFFFFFFFFFFFFFFFFFFFFFFD2
:100E3000FFFFFF0E5208003E3E0A0E0E003E3E1A15
:100E40003E2E003E3E2A22002E2E3A3A002E2E3A08
:100E50003A000000003E3E0A3E3E00000000023E16
:100E60003E02003E3E223E3E000000002E2E3A3A58
:100E700000023E3E02003E3E0A3E3E003E3E1A3E1C
:100E80002E00023E3E0200005620F06206EEEEEE1C
:100E9000EE8E8E8EEEFEFEFE1CE1FCFEFE1E0E0EA3
:100EA000EEFEFEFE1CE1FCFEFE1E0E0EEEFEFEFE43
:100EB0001CE1FCFEFEDECECECE0E0E000E0EEEFED1
:100EC000FEFE1E0E0E0EE0FCFEFE1E0E0EEEFEFEE2
:100ED000FE1CE0FEFEFE8E8E8EFEFEFE1C01030F4B
:100EE00003383F3F3F07038FBFBFBFBD8098BFBFE1
:100EF000BFBFB8B8383F3F9F8798BFBFBFBFB838A4
:100F000038BFBF9F87B8BFBFBF8781010181808085
:100F10008080B8BFBF3F87808080183FBFBFBFB809
:100F20003838BFBF9F87B8BFBFBF0703030383C362
:100F3000C1C0E0E0F0FCFFFEFCF8F8F8FC18C1FBD3
:100F4000FBFBFBE3E3E3FB7F3F3FC7F8FFFF7F7360
:100F50007373730303387F7F7F7773F3F3F3E303D4
:100F6000C1F8FFFF3F0703030303C3F8FFFF3F0779
:100F7000C0F8FFFF3FC7F8FFFF7F7773737303036A
:100F80000000C0C0FFFFFFFFFFFFFFFFFFFFFFFFED
:100F9000FFFFE0CE8F0F0F0100030F8F0F0F000632
:100FA0000F0F0F0F0E0E0E0E000C0E0E0E0E0E0E6D
:100FB0000E0F0F0701060F8F0F0F0E0E0E0E0006FD
:100FC0000F0F0F0F0E0E0F0F0701060F8F0F0F0ED3
:100FD0000E0E0E00000000F8FFFFFFFFFFFFFFFFF7
:100FE000FFFF171D000000000000001EBCC0808035
:100FF00080C0BC1E00000000000000C04040404017
:10100000303047495F5747575F494730304040408D
:1010100040C0FF00DF44DF00DF51DF00DF5151003F
:10102000DF10DF00D7555D00FF1F101711111017DB
:101030001417101714141017141710151517101F64
:10104000080B000202020000090400000102020075
:1010500000052400100105240101010424020605F5
:101060002406000107058103100040090401000265
:101070000A00000007050202400000070583024045
:1010800000000403090412010002EF0201404123A1
:10109000378000010102030141726475696E6F209F
:1010A0004C4C430041726475696E6F204D696372E8
:1010B0006F001C1711241FBECFEFDAE0DEBFCDBFDB
:1010C00012E0A0E0B1E0E0EDFCE502C005900D9279
:1010D000A230B107D9F729E0A2E0B2E001C01D9229
:1010E000A934B207E1F718E0CAE5D8E004C02197B7
:1010F000FE010E94602EC935D107C9F70E94A917C9
:101100000C94662E0C940000809111020895E1E485
:10111000F2E0A0E0B8E000800EBC8111012C119734
:10112000A0FDFDCF0192B9F70DB40895FC018091A7
:101130003B02882311F13FB7F89482E08093E900E5
:101140002091F200822F90E01816190614F481E025
:1011500090E0882339F0289A44E640933A0240917F
:10116000F1004083222339F02091F200211103C0C5
:101170002BE62093E8003FBF08958FEF9FEF08957F
:101180002FB7F89483E08093E9009091E800892FCD
:10119000807295FF04C09091F20080E4891B2FBFFC
:1011A00008958091320281110DC082E080932E0259
:1011B00084E080932F02109231021092300281E07D
:1011C000809332028EE292E00895CF93DF931F92D4
:1011D000CDB7DEB76983DC01ED91FC910280F3812C
:1011E000E02D41E050E0BE016F5F7F4F09950F9009
:1011F000DF91CF91089583E08093E9008091F20020
:10120000882319F08AE38093E80008950E94C008BB
:1012100090E00895CF93DF931F92CDB7DEB7FC0126
:101220008485958597FD08C02FEF3FEF358724878C
:101230000F90DF91CF910895CE0101960E949608FC
:10124000019719F4898190E0F3CF8FEF9FEFF0CFF2
:101250000F931F93CF93DF931F92CDB7DEB78C010F
:10126000FC018485958597FF0BC0CE0101960E94F5
:101270009608019771F4898190E0F8019587848739
:10128000F801848595850F90DF91CF911F910F9183
:1012900008958FEF9FEFF1CFFC018485958597FD31
:1012A0000BC09FB7F89482E08093E9008091F20030
:1012B0009FBF90E0019608959FB7F89482E08093D5
:1012C000E9008091F2009FBF90E0089540912802CC
:1012D000509129022091260230912702421753078C
:1012E000B4F49091E8009570E1F39091E80092FDDC
:1012F00019C08093F10080912802909129020196F3
:101300008F739927892B19F48EEF8093E8008091D1
:101310002802909129020196909329028093280235
:1013200081E0089580E00895DF92EF92FF920F939D
:101330001F93CF93DF93D82E8A01EB017B01E40E3C
:10134000F51ECE15DF0559F0D7FE12C0FE018491BF
:101350000E94660921968111F4CF0FEF1FEFC8019B
:10136000DF91CF911F910F91FF90EF90DF90089543
:101370008881EECF0F931F93CF93DF931F92CDB74A
:10138000DEB782E0898342E450E060E470E180E807
:101390000E9494090E94D108DC0112960D911C91C3
:1013A0000115110589F0D801ED91FC910280F381BE
:1013B000E02DBE016F5F7F4FC801099597FD04C006
:1013C000F80100851185ECCF89810F90DF91CF91D5
:1013D0001F910F910895615030F02091F100FC01B0
:1013E00020830196F8CF289A84E680933A020895E4
:1013F0003FB7F8948091220290912302A091240299
:10140000B091250226B5A89B05C02F3F19F0019683
:10141000A11DB11D3FBFBA2FA92F982F8827BC014E
:10142000CD01620F711D811D911D42E0660F771F76
:10143000881F991F4A95D1F708958F929F92AF9276
:10144000BF92CF92DF92EF92FF926B017C010E94DC
:10145000F8094B015C01C114D104E104F104B9F0B5
:101460000E94F809681979098A099B09683E734046
:101470008105910580F321E0C21AD108E108F10845
:1014800088EE880E83E0981EA11CB11CE4CFFF906B
:10149000EF90DF90CF90BF90AF909F908F90089586
:1014A0008F929F92AF92BF92CF92DF92EF92FF9274
:1014B0000F931F93CF93DF936C017B018A0180917F
:1014C0000D01882309F45CC080913B02882309F454
:1014D00057C080912D0280FF05C08091E00082609E
:1014E0008093E000E801B12C8AEFA82E93E0892ECA
:1014F0002AE3922E209711F4BB20D9F10E94C00854
:1015000081110AC0AA94AA20D9F161E070E080E0BC
:1015100090E00E941D0AEECF8C171D0611F00CF012
:101520008C2F9FB7F8948092E9002091E80025FD68
:1015300002C09FBFDFCF282F30E0C21BD30BF701C3
:10154000815020F041914093F100FACFE20EF31E5A
:10155000BB2021F09092E800B12CEBCF8091E80005
:1015600085FDE7CF9092E800BB24B394209709F360
:10157000F3CF5D9A84E680932C02101611063CF09E
:1015800081E090E0F6019383828310E000E0C801DF
:10159000DF91CF911F910F91FF90EF90DF90CF904F
:1015A000BF90AF909F908F900895AF92BF92CF92CF
:1015B000DF92EF92FF920F931F93CF93DF936C0113
:1015C0007B018B01040F151FEB015E01AE18BF08F4
:1015D000C017D10759F06991D601ED91FC910190A6
:1015E000F081E02DC6010995892B79F7C501DF91BE
:1015F000CF911F910F91FF90EF90DF90CF90BF9010
:10160000AF90089520914002E0913E02F0913F0298
:10161000CF01029690933F0280933E02222319F05D
:10162000859194910895808191810895E1E7F0E09A
:1016300080818D7F80831092910046984798109208
:1016400012020895CF92DF92EF92FF92CF93DF9331
:101650000E94020B811520E8920741F4DF91CF919F
:10166000FF90EF90DF90CF900C94160B21E0209329
:101670001202813020E8920751F480913C0290914F
:101680003D0290933F0280933E020E94020B97FD21
:1016900005C020910D02222309F45BC020910E02A7
:1016A000211157C021E020930302EC01DF7720973E
:1016B00009F052C081E08093040246983FE9C32EAE
:1016C0003FE0D32EE12CF12CCAEFD0E0E0919F0651
:1016D000F091A0060995811103C081E08093040276
:1016E00080910302882329F080910402882309F461
:1016F00046C047980E94020B009709F444C09C0121
:10170000DE010E94FD2ADC01CB0129E0B595A795F9
:10171000979587952A95D1F7109290002AE020930B
:101720009100D0929900C092980080930502909306
:101730000602A0930702B0930802809171008260B4
:1017400080937100DF91CF91FF90EF90DF90CF9069
:10175000089510920302A9CF9E0150E040E060E49A
:1017600072E48FE090E00E94A92A69017A0181E089
:10177000C81AD108E108F10810920402A7CF4699CF
:10178000B8CF479AB7CF8FEF9FEFDC01C5CF9C0151
:10179000E1E7F0E090819D7F908310924002E1E9C3
:1017A000F6E0F0933F02E0933E02F0933D02E093B7
:1017B0003C02318320831382128280E090E895837B
:1017C00084830C94220B9C01E1E7F0E090819D7FE3
:1017D000908381E08093400230933F0220933E0249
:1017E00030933D0220933C020C94220B4F925F9267
:1017F0006F927F928F929F92AF92BF92CF92DF9221
:10180000EF92FF920F931F93CF93DF934C015901F7
:10181000FC2DC02FD0E0CE01880D991D1816190699
:101820000CF06CC020E8821691040CF067C09B019C
:101830002E0D311D121613060CF060C060347105B8
:101840000CF05CC04115510509F458C0E62FE77053
:10185000FE2EDB0177FD179633E0B595A7953A95F7
:10186000E1F73A2F77FF04C0FF2011F03FEF3A0F66
:10187000662777276819790997FC02C070E060E055
:10188000803891050CF44BC090E89819961BA32F53
:10189000032E000CBB0B1A2F10953F3F0CF010E0ED
:1018A00021E08E2D877009F420E0E694E694E6941A
:1018B000E20EAE0DB11D19971CF028E0E22EE31ADE
:1018C000E11A310F20E83203D0011124A80DB91D0F
:1018D000A60FB71F019F600D711D1124460F571FE2
:1018E0000F2D0F2C000C110BF33009F41CC1C8F4A0
:1018F000F13009F4D0C0F23009F47CC0DF91CF910F
:101900001F910F91FF90EF90DF90CF90BF90AF901D
:101910009F908F907F906F905F904F900895902F41
:10192000B5CFFA3FB1F1232F2E0DFB3F39F7321718
:1019300029F3BD016F5B7D4FD12CC12CC91608F076
:10194000A4C0FA01EC0DFD1DE491F0E04F01002E62
:1019500002C0880C991C0A94E2F737FD06C0FB010F
:101960008081E82CE0948E218083FF2061F0373065
:1019700054F45B01F0E8AF0EB11CE92CE094F501E2
:1019800080818E218083FFEFCF1ADF0A6F5F7F4F48
:10199000D5CF232F2E0D321709F4B0CFBD016F5BC9
:1019A0007D4FD12CC12CC91608F069C0FA01EC0D8D
:1019B000FD1DE491F0E04F01002E02C0880C991C3F
:1019C0000A94E2F737FD04C0FB01808188298083F7
:1019D000FF2051F0373044F45B01F0E8AF0EB11C4A
:1019E000F501808189298083FFEFCF1ADF0A6F5FBD
:1019F0007F4FD9CF6FEF70E00F2C02C0660F771FBB
:101A00000A94E2F760957095772E232F2E0D3217EA
:101A100009F474CFFD01EF5BFD4F6F01B12CA12CD8
:101A2000A91638F5FA01EA0DFB1DE491F0E02F014B
:101A3000002E02C0440C551C0A94E2F737FD05C085
:101A4000F6018081862384298083FF2059F0373076
:101A50004CF44601F0E88F0E911CF401808187213F
:101A600085298083FFEFAF1ABF0A8FEFC81AD80A03
:101A7000D7CF3F5F4C0F5D1FA058BF4FC8CF3F5F10
:101A80004C0F5D1FA058BF4F86CF3F5F4C0F5D1FAF
:101A9000A058BF4F4CCF6A0D7B1D232F2E0D321740
:101AA00009F42CCFFD01EF5BFD4F6F01B12CA12C90
:101AB000A91688F5FB01EA0DFB1D8490912C002EE0
:101AC00002C0880C991C0A94E2F780949094FA0161
:101AD000EA0DFB1D6490712C002E02C0660C771C71
:101AE0000A94E2F737FD05C0F60180818821862936
:101AF0008083FF2049F037303CF4F601E058FF4F77
:101B00008081892187298083FFEFAF1ABF0A8FEF79
:101B1000C81AD80ACDCF3F5F4C0F5D1F6C0F7D1FD9
:101B2000A058BF4FBCCFC92ED12CFA01E60FF71F2A
:101B3000AF5BBD4F00E810E00C191D09CC19DD09A1
:101B4000BE01660F771F41E050E06A010F2C01C013
:101B5000CC0C0A94EAF7592F2E2D792ECF93DF93D0
:101B6000ED01EF96EF9622968590A590FF2059F013
:101B70008C9C4001AC9C500137302CF4E880B09430
:101B8000EB20E928E99233233AF0EC90A094EA2084
:101B9000E828ED920C94CD0D11965A9529F72A95C7
:101BA00051F0572D33951124E60FF11DA00FB11DF3
:101BB000C00FD11DD9CFDF91CF9111249FCECF92ED
:101BC000EF92FF920F931F93CF93DF93F22E980122
:101BD0004115510589F1FA0104913196E4914E5F66
:101BE0005F4FF11002C0EE2021F1C1E0D0E0FE2FE6
:101BF000F77011F4D0E0C0E0AE2FA695A695A6959B
:101C0000AC0FBD2FB11D0A9FE0010B9FD00D112419
:101C10002115310539F0EC9ED001ED9EB00D112457
:101C20002A0F3B1FFC9ED001FD9EB00D11244A0FD0
:101C30005B1FEE2E0E94F60BDF91CF911F910F914B
:101C4000FF90EF90CF900895CF92EF920F934115B0
:101C5000510561F0FA0104913196E4904E5F5F4FB7
:101C600022E0C22E30E020E00E94F60B0F91EF90B0
:101C7000CF9008952D9A0895BC0190E080E00C94D7
:101C80001D0A8FB18095807F669B88601C9B846055
:101C90000895109211023E983F9808953E9A3F9AF7
:101CA00081E080931102089590911B02982329F4FA
:101CB00090911C02982381E009F480E00895CF936D
:101CC000C82F0E94410E982F9C2381E09C1380E036
:101CD000CF91089580E00C948708E1E4F2E081114F
:101CE0008FEF002481938193819381930394D1F7A3
:101CF00008956034710508F03EC0480F592F511DFA
:101D000014161506C4F580389105ACF597FF02C08E
:101D100090E080E04138510514F040E850E0481B65
:101D2000FB0133E0F595E7953A95E1F7F695FE2F3F
:101D3000EE27F795E795E80FF91FEF5BFD4F67700A
:101D4000772781E090E001C0880F6A95EAF7382F85
:101D5000213041F4415078F08191DF011197832BBC
:101D60008C93F8CF8095415030F09191DF0111971D
:101D700098239C93F8CF089580389105B8F4603487
:101D80007105A0F420E191E061FD94E060FD990F00
:101D900062FD9295687F269FD0011124A80FAF5B4A
:101DA000BD4F8C9140FF03C0892B8C930895909573
:101DB0008923FBCF2F923F924F925F926F927F9237
:101DC0008F929F92AF92BF92CF92DF92EF92FF924B
:101DD0000F931F93CF93DF9300D000D000D0CDB7E7
:101DE000DEB76B837C83298325E0429FA001112409
:101DF000FA01EC54FB4F2F01F12C3C0110E0312C87
:101E0000153029F0C2010196F20134902C01FB81BA
:101E1000FD832C812E8388E0282E30FE1DC0398161
:101E20003A8301C00A83D12CC12CEC14FD04B9F013
:101E30004601860C971CB12CA12CAE14BF04C1F135
:101E40006D817E816A0D7B1D4A81C4010E94BC0E9A
:101E50009FEFA91AB90AF1CF89810813E3CF36940D
:101E60002A942D813E812E0D3F1D3E832D8321100E
:101E7000D4CF1F5F6E0C7F1C163009F0C0CF2696A2
:101E80000FB6F894DEBF0FBECDBFDF91CF911F918B
:101E90000F91FF90EF90DF90CF90BF90AF909F9009
:101EA0008F907F906F905F904F903F902F9008950C
:101EB000EFEFCE1ADE0AB9CFEF920F93CF93DF93F5
:101EC000462F6D3081F06091090270910A024A300C
:101ED00089F410920C0210920B02685F7F4F70938E
:101EE0000A026093090281E090E0DF91CF910F91A7
:101EF000EF900895C0910B02D0910C02EE24E39470
:101F00000091020220910001CE010E94DA0E269675
:101F1000D0930C02C0930B02E6CFDF92EF92FF92B8
:101F20000F931F93CF93DF937C01D22E8B01040F6D
:101F3000111DEB0177FF02C0D0E0C0E0C801013401
:101F4000110514F080E490E0C817D9073CF44D2D3A
:101F5000BE01C7010E94BC0E2196F0CFDF91CF9148
:101F60001F910F91FF90EF90DF900895CF92DF9235
:101F7000EF92FF920F93CF93DF936C017B01C42FFD
:101F8000D22F202F0E94790EB7016D0F711D615065
:101F90007109202F4C2FC6010E94790E202F4D2F42
:101FA000B701C6010E948D0FC6018C0F911D202F15
:101FB0004D2FB7010197DF91CF910F91FF90EF90D7
:101FC000DF90CF900C948D0F8F929F92AF92BF9223
:101FD000CF92DF92EF92FF920F931F93CF93DF93F5
:101FE00080912D0990912E09C0913909D0913A091B
:101FF000029721F0C0912F09D09130098CE6F1E1D0
:10200000DF2EC436D10518F086E6E7E1DE2EE82E95
:10201000F12C87010F5F1F4F21E04BE065E370E07B
:10202000C8010E948D0F0F5F1F4F0C371105A4F3DD
:1020300000E02DE04D2D64E370E0C7010E94B60F73
:10204000CA30D105C0F4CC0FDD1FC95EDE4F488118
:10205000598167E370E0C7010696DF91CF911F9128
:102060000F91FF90EF90DF90CF90BF90AF909F9037
:102070008F900C94240E97012D5F3F4F5AE0852ED0
:10208000912CCE01B4010E94382E8B01570149E0FA
:10209000A40EB11CFC01EE0FFF1FE95EFE4FC080D5
:1020A000D180C436D10588F4000F111FF801E95E14
:1020B000FE4F4081518167E370E0C9010E94240E08
:1020C000A60167E370E0C501C8CFCE0164E670E009
:1020D0000E94382EFB01EE0FFF1FE95EFE4F40818C
:1020E000518167E370E0C9010E94240EC801B40168
:1020F0000E94382EFC01EE0FFF1FE95EFE4F40816B
:10210000518167E370E0C5010E94240EA60167E3D8
:1021100070E0C7010F96A1CF8F929F92AF92BF92AE
:10212000CF92EF920F931F93CF93DF935C01EC015B
:102130004C0184E2880E911C8C8D8823B1F02C898F
:10214000263098F4F501668160518A8D680F70E041
:10215000888D9481890FCC24C394E22E01E012E093
:1021600049E452E090E00E94DF0D2C96C815D90595
:1021700019F7DF91CF911F910F91EF90CF90BF9002
:10218000AF909F908F9008958F929F92AF92BF9241
:10219000CF92EF92FF920F931F93CF93DF93F82E7E
:1021A00086E3F89EF0011124CF018253994F4C0130
:1021B000EF55F94FC7A583A9C80FD0E0A5A481A901
:1021C000A80EB12CCC24C394E12C8A0120E0AB01F1
:1021D000BE01C5010E94DF0DFC14D1F092E0BE01EA
:1021E000F91631F16150710920E043E0C5010C9608
:1021F0000E94790EC401DF91CF911F910F91FF9042
:10220000EF90CF90BF90AF909F908F900C948C10D8
:10221000229720E042E0BE01C50104960E948D0F86
:1022200020E042E0BE01C50105960E948D0FE2CF7D
:102230006350710920E043E0C5010F960E948D0FA5
:10224000BE016250710920E042E0C5014196EDCF28
:10225000CF92DF92EF92FF920F931F93CF93DF9372
:10226000D82EAB0186E3D89EF0011124CF01825312
:10227000994F7C01EF55F94F07A583A9080F10E08E
:10228000C5A581A9C80FD0E0B801CE010E94240ED7
:1022900093E0D9121FC06E0184E1C80ED11CB801B1
:1022A0006250710920E046E0C6010E94790E01509B
:1022B000110940E0B801C6010E94BC0E40E0B8011F
:1022C000CE0147960E94BC0E40E0B801CE0149966F
:1022D0000E94BC0EC701DF91CF911F910F91FF901B
:1022E000EF90DF90CF900C948C104AE354E066E7B7
:1022F00074E080E00E94C41044EE53E06EE074E0AD
:1023000081E00E94C41044E653E063EA73E082E097
:102310000E94C41068E273E083E00E9428116AEC16
:1023200072E084E00E94281144EB52E063E270E026
:1023300090E080E00E94240E45EA52E06AE370E0FB
:1023400086E190E00E94240E43E952E06AE370E0E7
:1023500081E490E00C94240E81E00E946D0E4FE722
:1023600051E070E060E090E080E00E94240E40E1E7
:1023700051E068E370E090E080E00C94240E2F922E
:102380003F924F925F926F927F928F929F92AF9205
:10239000BF92CF92DF92EF92FF920F931F93CF9352
:1023A000DF93CDB7DEB72B970FB6F894DEBF0FBE25
:1023B000CDBF862E4A87298331E032273B87262EE0
:1023C000312C482E512C042F10E0440F4F5FB101E7
:1023D000601B710B232FC2010E948D0F81E090E0E2
:1023E0005C01A01AB10ACC24DD24C01AD10ACC0C9D
:1023F000DD1CF12CE12C66246394712C5B824A82F3
:1024000039862886E016F1060CF045C0B7FC07C0F7
:102410000150110982E0C80ED11CAC0CBD1C9FEF0D
:10242000E91AF90A22E0620E711CA60CB71C902E64
:10243000990C93942B85492DC101801B910B9D8391
:102440008C83BC018A819B818E0D9F1D0E948D0F04
:10245000288539852E193F093F832E832B85462DEC
:102460006E817F81C201800F911F0E948D0F2B858D
:10247000492D6C817D818A819B818E199F090E94E3
:102480008D0F2B85462D6E817F81C201801B910BA4
:102490000E948D0FB7CF3A853F5F832F90E09B83DB
:1024A0008A8381E090E07C012A813B81E21AF30A71
:1024B0003901719461947108660C771CB901620D41
:1024C000731D4981C2010E94BC0EB1018A819B81AA
:1024D000681B790B4981C2010E94BC0E4981B10180
:1024E0008A819B81840D951D0E94BC0E4981B1019A
:1024F000C2012A813B81821B930B0E94BC0E10E01B
:1025000000E081E090E09D838C83282D30E03F83C4
:102510002E838A819B81081719070CF05DC0F7FC98
:1025200008C001979B838A8392E0690E711CE60CB8
:10253000F71C0F5F1F4F2C813D812E5F3F4F3D8366
:102540002C83E20EF31E4801840C951C4981CA803D
:10255000DB80C20CD31CB601C4010E94BC0E520128
:10256000A01AB10A4981B601C5010E94BC0E498179
:1025700061018A819B81C81AD90AB601C4010E94EF
:10258000BC0E4981B601C5010E94BC0ECE80DF8021
:10259000C00ED11E4981B601AA80BB80A40CB51C17
:1025A000C5010E94BC0E4981B60162012A813B81AE
:1025B000C21AD30AC6010E94BC0E8E809F80801A68
:1025C000910A4981B401C5010E94BC0E4981B40140
:1025D000C6010E94BC0E9DCF2B960FB6F894DEBFAD
:1025E0000FBECDBFDF91CF911F910F91FF90EF9064
:1025F000DF90CF90BF90AF909F908F907F906F9023
:102600005F904F903F902F900895FC01E15FFE4F47
:10261000108231972081FC0180E041E050E0821778
:1026200088F4158214821782168251874087138698
:102630001286148616861586108A1786118A148EBD
:1026400010A614AA8F5FF696853049F70895FC010D
:1026500080819181019691838083648175810E943C
:10266000382E892B41F4828190E00196638170E0DD
:102670000E944C2E82830895089590E080E0089592
:10268000DA0191E09227909302022093000190E0FA
:1026900090930C0280930B0270E070930A02609397
:1026A0000902FA0101900020E9F73197AF014A1BB6
:1026B0005B0BBD0185E499E00C94D50A0C94932A38
:1026C000FF920F931F93CF93DF93EC01F62E0881B7
:1026D0001981C8010E94932AF81621F06F2DC801B4
:1026E0000E949B2ACE01DF91CF911F910F91FF9005
:1026F00008950F931F93CF93DF9300D0CDB7DEB72C
:102700008C0180E993E09A838983F8016081CE018E
:1027100001960E94601381E993E09A838983F8010E
:102720006181CE0101960E946013C8010F900F9045
:10273000DF91CF911F910F9108951F920F920FB6C5
:102740000F9211248F939F938091E1009091E1006B
:10275000937F9093E10083FF0FC01092E90091E016
:102760009093EB001092EC0092E39093ED001092A6
:102770003B0298E09093F00082FF22C093E0909398
:10278000E9009091F200992319F09AE39093E80000
:1027900090912C02992341F090912C0291509093AA
:1027A0002C02911101C05D9890913A02992341F059
:1027B00090913A02915090933A02911101C0289859
:1027C00084FF18C08091E2008E7E81608093E200D9
:1027D0008091E1008F7E8093E10080912D028E7EBA
:1027E000806180932D029F918F910F900FBE0F906B
:1027F0001F90189580FFF7CF8091E2008E7E806158
:102800008093E2008091E1008E7E8093E1008091D0
:102810002D028E7E8160E5CF1F920F920FB60F9230
:102820001124CF92DF92EF92FF920F931F932F9379
:102830003F934F935F936F937F938F939F93AF9348
:10284000BF93EF93FF93CF93DF93CDB7DEB76C9732
:10285000DEBFCDBF1092E9008091E80083FF25C064
:1028600068E0CE0145960E94EB0982EF8093E80074
:102870008D8987FF39C09091E80090FFFCCF982F99
:10288000907609F034C19E894F89588D2F89F88C34
:10289000911131C0803861F580912B028093F10055
:1028A0001092F1008EEF8093E8006C960FB6F894CA
:1028B000DEBF0FBECDBFDF91CF91FF91EF91BF91F2
:1028C000AF919F918F917F916F915F914F913F91C8
:1028D0002F911F910F91FF90EF90DF90CF900F906D
:1028E0000FBE0F901F9018959EEF9093E800C7CFF2
:1028F0001092F100D5CF913059F48111D3CF4130EE
:10290000510581F680912B028D7F80932B02CACFD7
:10291000933049F48111C6CF4130510519F68091A9
:102920002B028260F2CF953041F48091E80080FF65
:10293000FCCF20682093E300B5CF963009F0A9C002
:102940000B8D1C8D22E01092E9001092290210924A
:102950002802F2122EC010922702109226020E9424
:10296000BA091F8299E09983FA8291E09E8390EAE6
:1029700098879AEF99872091280230912902275F42
:102980003F4F3C832B838D831092E90010922902E4
:1029900010922802109327020093260249E050E08B
:1029A000BE016F5F7F4F80E00E9494090E94BA09C8
:1029B00079CF10932702009326020E94D108DC01F0
:1029C00012960D911C910115110509F451C1D80100
:1029D000ED91FC910480F581E02DBE016B5E7F4F8F
:1029E000C8010995009709F03EC1F80100851185DD
:1029F000EACFF3E0FF120EC08F89882309F440C0AC
:102A0000823061F440E86DE084EA90E10E94E916CA
:102A1000811148CF81E28093EB0047CF813029F4C8
:102A200040E86BE088E990E1F1CF833099F70E94AC
:102A3000D108DC011296ED90FC908E010F5F1F4FC4
:102A40006801E114F10479F0D701ED91FC91068061
:102A5000F781E02DB801C7010995080F111DF70195
:102A6000E084F184EECFD8011C92F60101900020A1
:102A7000E9F73197BF016C197D0940E0C601C6CF67
:102A800062E870E1FB01449150E080E80E94940903
:102A900009CF973009F4BECF983021F481E08093BC
:102AA000F10000CF993009F0FDCE837009F0B2CF6C
:102AB000E7E7F1E081E031E096E32191222371F034
:102AC0008093E9003093EB00DF0111972C91209364
:102AD000EC009093ED008F5F873079F78EE780935D
:102AE000EA001092EA008F8980933B02DBCE8B8D47
:102AF0009C8D1092E9001092290210922802909366
:102B0000270280932602898D811192C08E899D892A
:102B1000913A49F4813209F07DCF47E050E066E018
:102B200071E080E0B3CF913209F074CF833269F461
:102B30008F89988DB0E0A0E080930201909303010B
:102B4000A0930401B0930501ADCE803269F4809169
:102B5000E80082FFFCCF67E086E091E00E94EB098D
:102B60008BEF8093E8009ECE823209F09BCE8F8956
:102B700080930D01EEEFFFE7859194918B3F9C4D83
:102B800051F1E0E0F8E08091060190910701A091F9
:102B90000801B0910901803B9440A105B105F1F411
:102BA00080910D0180FD1AC0EE3F8AE0F80789F59B
:102BB00087E797E7918380838091600080932A0262
:102BC00088E19BE00FB6F894A895809360000FBE53
:102BD0009093600067CEEEEFFAE0D5CF80819181CF
:102BE0008737974709F05ECEA8958091600088618D
:102BF0008093600080912A0280936000EE3F2AE07B
:102C0000F20789F08091FE0A9091FF0A91838083F8
:102C100049CE808191818737980751F29093FF0ABE
:102C20008093FE0AC5CF1092FF0A1092FE0A3ACE98
:102C30000E94D108DC0112960D911C91011511051D
:102C400009F4E8CED801ED91FC910190F081E02DDE
:102C5000BE016B5E7F4FC8010995811123CEF8013B
:102C600000851185EBCF181619060CF41BCED2CEB9
:102C7000F1E0FF12BECE66E870E104CF1F920F9222
:102C80000FB60F9211242F933F938F939F93AF937F
:102C9000BF9380911E0290911F02A0912002B091DB
:102CA000210230911D0223E0230F2D3758F50196A4
:102CB000A11DB11D20931D0280931E0290931F023F
:102CC000A0932002B09321028091220290912302CE
:102CD000A0912402B09125020196A11DB11D8093FF
:102CE000220290932302A0932402B0932502BF9165
:102CF000AF919F918F913F912F910F900FBE0F90A9
:102D00001F90189526E8230F0296A11DB11DD2CF62
:102D10001F920F920FB60F9211242F933F934F9350
:102D20005F936F937F938F939F93AF93BF93EF9333
:102D3000FF938091050290910602A0910702B09145
:102D40000802892B8A2B8B2B09F440C08091040246
:102D500081110BC088B190E4892788B98091030262
:102D6000882319F088B1805888B980910502909124
:102D70000602A0910702B0910802181619061A0659
:102D80001B069CF48091050290910602A091070217
:102D9000B09108020197A109B109809305029093AF
:102DA0000602A0930702B0930802FF91EF91BF9132
:102DB000AF919F918F917F916F915F914F913F91D3
:102DC0002F910F900FBE0F901F9018950E94220B0D
:102DD000ECCFEF92FF920F931F93CF93DF93F82ED8
:102DE000192FE62E042F81E0860F880F0E946609B6
:102DF00083E00E946609CF2DD12FEC0EFD2EF11C31
:102E0000CE15DF05B9F007FF13C0FE0184910E94C3
:102E10006609182F80E00E9466098123219681119E
:102E2000EFCFDF91CF911F910F91FF90EF90089519
:102E30008881EDCF81E0F5CF1092440610924306D1
:102E400088EE93E0A0E0B0E08093450690934606BC
:102E5000A0934706B093480681E891E0909342061C
:102E6000809341068FEF9FEF90934E0680934D061F
:102E7000109248091092470983E991E0909346091E
:102E80008093450984E898E09093A00680939F067C
:102E900080E090E890939E0680939D0646983E9A27
:102EA00047983F9A1092A2061092A1061092A3068C
:102EB00084E08093A40688E090E09093A606809337
:102EC000A50690E080E024E048E050E0FC01E052FC
:102ED000F94FBC016C5F784F1182108212822383FC
:102EE000558344833C96E617F707B1F7C6968E30B4
:102EF00031E0930759F71092DC07EEEDF7E024E09C
:102F000088E090E01182108212822383958384836B
:102F1000749639E0EE31F307A9F710922109109267
:102F20002009109222092093230990932509809368
:102F3000240910922E0910922D0910923B0985E068
:102F4000E2E1F1E0ACE3B9E001900D928A95E1F79E
:102F50000895CF93DF93CDB7DEB728970FB6F894D7
:102F6000DEBF0FBECDBF789484B5826084BD84B5CA
:102F7000816084BD85B5826085BD85B5816085BD74
:102F800080916E00816080936E001092810080912C
:102F900081008260809381008091810081608093B4
:102FA00081008091800081608093800080919100F9
:102FB0008260809391008091910081608093910064
:102FC000809190008160809390008091C100846026
:102FD0008093C1008091C10082608093C100809184
:102FE000C10081608093C1008091C30081608093A3
:102FF000C3008091C00082608093C0008091C200B5
:1030000081608093C20080917A00846080937A000E
:1030100080917A00826080937A0080917A0081604A
:1030200080937A0080917A00806880937A00109271
:103030003B0210922B0210922D028091D7008160EA
:103040008093D70080EA8093D80089B5806189BDDC
:1030500089B5826089BD09B400FEFDCF61E070E0F2
:1030600080E090E00E941D0A8091D8008F7C8061F2
:103070008093D8008091E000807F8093E000809171
:10308000E1008E7E8093E1008DE08093E200559A0E
:10309000209A5D98289881EC80937C0085B1806FA0
:1030A00085B984B1877E84B984B1876E84B95E9A0C
:1030B0005F988AB1806D8AB9769A6E9881B3806F75
:1030C00081BB899880B38D7080BB80E58CBD81E029
:1030D0008DBD85E090E00E943C0E5F9A85E090E017
:1030E0000E943C0E5E985C98E4E6FAE087E79AE07E
:1030F00024912EBD00000DB407FEFDCF31968E1732
:103100009F07B1F75C9A81E8809364008091650025
:103110008160809365000E946A0E80E80E945F0EC5
:1031200002E010E08823A9F05C9885EA8EBD0000DB
:103130000DB407FEFDCF5C9A2E982F982D988091A4
:10314000640080628093640081E083BF889513BE31
:10315000FCCF84E00E945F0E882309F440C02D98C4
:1031600084E80E945F0E8823C1F00E943A0E88EC2A
:1031700090E00E943C0E2F981A8309836FEFCE01D6
:1031800001960E94601384EF91E00E943C0E2F9AFA
:1031900084E80E945F0E8111FBCF84E10E945F0EE4
:1031A0008823C1F00E943A0E88EC90E00E943C0E09
:1031B0002E981A83098360E0CE0101960E94601365
:1031C00084EF91E00E943C0E2E9A84E10E945F0EF3
:1031D0008111FBCF88EC90E00E943C0EBACF0E9498
:1031E0003A0E82E090E00E945E13882309F4D1C079
:1031F0000E944E0E81E090E00E945E13282F247002
:10320000722E81FF13C021112E9801EF1FEF58E09D
:10321000E52EF12C68E5662E80E40E945F0E88237F
:1032200009F4BAC02E9A2F9A0E943A0E82E390E0D7
:103230000E943C0E0E94410E8111F8CF80E18093E4
:10324000010110920E0210920D0281E080930E0295
:103250008FE893E00E945E13873409F060C180E933
:1032600093E00E945E1390E090933A0980933909AD
:103270008091DC07E6E3E89FD0011124AF55B94FF8
:1032800027E030E09E963C932E939D972CE230E011
:10329000D0963C932E939F9721E030E0D6963C93B6
:1032A0002E93D597A1E0A80FEA9FD0011124AF5526
:1032B000B94F4DE150E09E965C934E939D9744E349
:1032C00050E0D0965C934E939F97D6963C932E9366
:1032D000D597A2E0A80FEA9FD0011124AF55B94FAE
:1032E0009E965C934E939D9748E250E0D0965C93F7
:1032F0004E939F97D6963C932E93D597A3E0A80F15
:10330000EA9FD0011124AF55B94F4BE450E09E968F
:103310005C934E939D9741E350E0D0965C934E931F
:103320009F97D6963C932E93D59794E0980FE99F5C
:10333000F0011124EF55F94F49E650E056A745A793
:103340004CE150E050AB47A736AB25AB8B5F809389
:10335000DC0730932E0920932D09A3E02A2E312C6F
:103360008FB7F89440911E0250911F026091200285
:10337000709121028FBF80910F02882309F4DFC072
:1033800010920F0280E090E0892B51F30E94000020
:10339000E4CF0E94490E2ECF772029F0043011058A
:1033A00011F42E9A2F9881E00E948708980117FF48
:1033B00004C022273327201B310B27703327C80175
:1033C00017FD079643E0959587954A95E1F717FF16
:1033D00005C00197A701421B530B9A01BC017695CA
:1033E000762F6627779567956F5B7D4FB0E0A0E0FD
:1033F0002701421A530A8E3F5FEF950709F43FC039
:103400006A9E50016B9EB00C112450E040E0F50123
:10341000EC54F64F5F014B01F0E88F0E911C8F3F8B
:10342000980791F0F501E40FF51FE4916B01C40ECC
:10343000D51EF0E01F01022E01C0220C0A94EAF70B
:10344000F60134882328248A2115310599F0F501E5
:10345000E40FF51FE4916401C40ED51EF0E01F01D6
:10346000042C02C0359427940A94E2F7F6013488BC
:103470002328248A4F5F5F4F4835510581F6019616
:1034800060587F4F119709F047C00E946A0E8FE085
:1034900090E00E943C0E0F5F1F4F0931110509F0AB
:1034A000BBCE772011F02F9A2D9880E991E00E94F1
:1034B0003C0E0E943A0E81E090E00E945E1380FF75
:1034C000B5CE8AE090E00E945E139FEF980F9E3F7A
:1034D00008F0ACCE22E330E030930C0220930B02D4
:1034E00028E330E030930A02209309020BE010E059
:1034F000682F85E499E00E945C0FC8010E945E136A
:103500000F5F1F4F0131110599F70E946A0E88EE77
:1035100093E00E943C0E8ACEA1E0B0E06CCF8FE831
:1035200093E09A83898367E4CE0101960E94601339
:103530001A821982CE0101960E94791399CE809148
:103540001002F42FF81B8F2F90910101F91748F406
:103550008F5F891708F016CF81E083BF889513BE6F
:1035600011CF11E010930F0240931002E09014026B
:10357000F09015022FEFE21AF20AF0921502E09293
:10358000140280911C0280931B020E94410E8093C2
:103590001C0280911A02882309F45DC080911602F2
:1035A000909117029C013695279500E510E0021BCB
:1035B000130B0E3011052CF0019690931702809397
:1035C000160280E00E946D0E21E044EC51E0602F75
:1035D00089E10E9440136CE0600F21E043ED51E06F
:1035E00082E20E94401360E2600F21E04FED51E063
:1035F0008FE10E94401363E2600F21E042E088E126
:103600000E94BF11B8016E5D7F4F21E043E087E16A
:1036100090E00E94790EB8016D5D7F4F41E087E137
:1036200090E00E94BC0EB8016C5D7F4F21E043E04A
:1036300087E190E00E94790E88E00E94540E882372
:1036400009F475C010921A02109219021092170212
:10365000109216026CC080911902882309F4F8C0F8
:1036600008E010E021E048E365E070E0C8010E9456
:103670008D0F0F5F1F4F09371105A1F700E02AE3F7
:1036800043E764E070E087E090E00E94B60F80912D
:1036900011024BE951E0811102C045EA51E020E0FE
:1036A0006DE08AE10E94401380912D0990912E09CE
:1036B00040EB51E0029711F04BEB51E020E068E164
:1036C0008AE10E94401320E04EEE51E063E28AE17D
:1036D0000E94401320E044EF51E06EE28AE10E9434
:1036E0004013609118023BE0639FB0011124635FB7
:1036F0007F4FEE24E39401E020E040E180E190E0A0
:103700000E94DA0E88E00E94540E882309F472C0E9
:1037100084EC9DE00E94E30B809118028130F1F06F
:1037200048F0823009F452C0833009F45FC00E942F
:103730006A0E28CE80911102882369F00E94490EFA
:103740006091110282E090E09A838983CE01019614
:103750000E946013ECCF0E944E0EF2CF80912D0993
:1037600090912E091092170210921602029739F4C6
:1037700030922E0920922D0910921902D8CF46E0DE
:1037800050E050932E0940932D0910924209109257
:1037900041091092B7061092C0061092C10610920D
:1037A000C2061092C3061092C4061092C50610926B
:1037B000C6061092C7061092C8061092C90610924B
:1037C000CA061092B50610922A09D6CF8FE893E068
:1037D0009A8389836FEFCE0101960E9460130E9445
:1037E0004E0E10922E0910922D09C6CF81E08093C3
:1037F0001A022CCF84E00E94540E882329F08AEA12
:103800009DE00E94E30BB8CF80E80E94540E88230D
:1038100071F087E79AE00E94E30B809118028823F9
:1038200021F081508093180282CF83E0FBCF80E1AA
:103830000E94540E882309F47ACF87E79AE00E9409
:10384000E30B8091180290E0019683709927EACFEC
:1038500080912D0990912E098230910509F4A1C023
:1038600008F5009709F481C0019709F060CF8091B5
:103870001602909117029C012F5F3F4F3093170261
:10388000209316028837910508F080C080E00E94DE
:103890006D0E42EE5FE060E170E086E390E00E9432
:1038A000240E45CF8330910509F405C18730910579
:1038B00008F03DCF049709F03BC28091C8068823E9
:1038C00039F08091BA069091BB06892B09F030C27D
:1038D00080E20E945F0E882309F4B8C120E030E046
:1038E000A9016091C0067091C1068091C2069091B5
:1038F000C3060E941C2D1816E4F08091A706909133
:10390000A8062091AB063091AC06821B930B409722
:1039100084F4E091B806EE2361F0E150E093B8063C
:10392000F0E0E45CF64F808190E09093AC068093E9
:10393000AB0680E10E945F0E882309F4B1C180913B
:10394000B9069091B606992309F4B3C1833008F4FF
:10395000BCC2109113021111B8C28DE79AE00E9407
:10396000E30B81E080931302D8C1109218021092E9
:103970003A0910923909109217021092160281E04A
:1039800090E090932E0980932D09D1CE10921702CA
:10399000109216028EEC96E00E94051382E090E0F1
:1039A000F0CF80911602909117028A34910528F485
:1039B00001969093170280931602009116021091BF
:1039C00017020931110508F472C00E94AC11B80148
:1039D0006951710990E080E00E942B2C20E030E0DA
:1039E00040E450E40E94832B0E947E2B4B015C013B
:1039F000C8019695879565E270E0681B790B90E0A9
:103A000080E00E942B2CA50194010E94212D9B0196
:103A1000AC0160E070E080E291E40E940C2B0E9417
:103A2000F52B062E000C770B48E85EE085E190E070
:103A30000E94240E0E9475110E94E40FC7016EE6D9
:103A400070E00E94382E8634910588F40734110501
:103A500070F0CC24C394E12C02EE1DE020E044E39E
:103A60005EE061E370E084E190E00E94DF0D88E0B9
:103A70000E94540E882369F01092170210921602C9
:103A800084EC9DE00E94E30B30922E0920922D09D8
:103A90004ECE84E00E94540E882309F448CE8AEA70
:103AA0009DE00E94E30B81E08093190240CE80E00C
:103AB0000E946D0E3CCE80E00E946D0E8091160239
:103AC000909117028D33910530F40196909317026F
:103AD000809316022CCE109217021092160280E8E4
:103AE0009DE00E94E30B80911402909115020E94C8
:103AF000882A84E090E090932E0980932D091092FB
:103B0000300910922F09109231091093320984EB79
:103B100090E090933609809335099093340980930F
:103B20003309109238091092370910923B0910920C
:103B300042091092410910924409109243098AEFF8
:103B400090E09093A8068093A7068CE090E0909375
:103B5000AA068093A90680E090E0AAE7B3E48093E8
:103B6000AD069093AE06A093AF06B093B00620E0EA
:103B700030E040E85FEB2093B1063093B20640930B
:103B8000B3065093B4061093B5061092B606109281
:103B9000B7061092A30684E08093B8061092B90687
:103BA0001092BB061092BA061092C0061092C1067F
:103BB0001092C2061092C3061092C4061092C50657
:103BC0001092C6061092C7061092C8061092C90637
:103BD0001092CA068EEC96E00E940513E4EEF7E020
:103BE00084E299E0108274968E179F07D9F780E2DD
:103BF0009CE190932C0980932B0988ED9FEF909383
:103C00002709809326098CE090E0909329098093FE
:103C1000280910922A0983E0809323098AE090E022
:103C20009093250980932409E091B806F0E0E45CC4
:103C3000F64F808190E09093AC068093AB068AE5C6
:103C400090E09093BB068093BA0671CD80E40E9409
:103C50005F0E882309F46DCE20E030E0A901609169
:103C6000C0067091C1068091C2069091C3060E9461
:103C70001C2D18160CF45DCE8091AB069091AC060D
:103C80002091A7063091A806821B930B40970CF059
:103C900050CEE091B806E43008F04BCEEF5F3ECE58
:103CA00088E00E945F0E182F811149CE10921302F6
:103CB00034C00091B806043008F048CE1091C80610
:103CC000111144CE833008F044CE20E030E0A90149
:103CD0006091C4067091C5068091C6069091C70692
:103CE0000E94792B811119C036E3039FF001112442
:103CF000EF55F94F67A570A965517109072E000CA2
:103D0000880B990B0E942D2C6093C4067093C506F6
:103D10008093C6069093C70611E080E80E945F0E6C
:103D2000882309F4D4C08091B606882309F4D9C049
:103D3000A090A106B090A206A5014F5F5F4F5C83E3
:103D40004B838091B706811154C38091A70690914F
:103D5000A8060091AB061091AC068017910709F0F8
:103D6000E7C01092B6061092B1061092B2061092F9
:103D7000B3061092B406C50166E070E00E94382ECA
:103D8000892BD1F4C090B106D090B206E090B30672
:103D9000F090B4062DEC3CEC4CEC5DE3C701B601B1
:103DA0000E941C2D18160CF063C18091A30686306A
:103DB00018F48F5F8093A306C50168E170E00E944C
:103DC000382E90E080E00E942B2C0E948E2D20E067
:103DD00030E040E451E40E940D2B6B017C0120E0B7
:103DE00030E0A9010E941C2D20E030E040E05FE3BC
:103DF00087FD4FC1C701B6010E940D2B0E94F52B14
:103E00007093AA066093A9068091A7069091A806D0
:103E10000A969093BD068093BC06685F7F4F7093AF
:103E2000BF066093BE061092CD064090C00650902B
:103E3000C1066090C2067090C306C090C406D090C0
:103E4000C506E090C606F090C706A7019601C3011B
:103E5000B2010E940C2B4B015C0120E030E0A90173
:103E60000E941C2D18160CF019C12AE037ED43E210
:103E70005CE3C501B4010E941C2D18160CF418C196
:103E8000C092C006D092C106E092C206F092C3066C
:103E90008091C8068093C9061092C806882309F449
:103EA00028C18091CA06882309F423C120E030E0AC
:103EB000A901C701B6010E94792B81111AC181E0C5
:103EC0008093CD061092CA0614C110E026CF88E078
:103ED0000E945F0E882309F42BCF112309F423CF0E
:103EE00027CF8091B806843008F022CF8091C80691
:103EF00081111ECF8091B906833008F019CF20E0E0
:103F000030E0A9016091C4067091C5068091C60693
:103F10009091C7060E941C2D18160CF009CF109224
:103F2000C4061092C5061092C6061092C70600CFAE
:103F300021E02093B606801791070CF088C06DEC45
:103F40007CEC8CE49DE32091B1063091B206409167
:103F5000B3065091B4060E940D2B6B017C0120E04A
:103F600030E040E85FEB0E941C2D18160CF074C086
:103F700020E030E040E85FE3C701B6010E94792B02
:103F800087FD06C0C12CD12C70E8E72E7FE3F72E09
:103F9000C092B106D092B206E092B306F092B40697
:103FA0004090AD065090AE066090AF067090B0069F
:103FB000B801110F880B990B0E942D2CA3019201BF
:103FC0000E940C2B9F7720E030E040E851E40E94F3
:103FD000792B87FF10C026E636E646E65FE3C70189
:103FE000B6010E94212D6093B1067093B2068093B2
:103FF000B3069093B4062091B1063091B206409179
:10400000B3065091B406C301B2010E940D2B6B019F
:104010007C01C092AD06D092AE06E092AF06F0925F
:10402000B00620E030E0A9010E941C2D20E030E025
:1040300040E05FE387FD17C0C701B6010E940D2B6A
:104040000E94F52B7093A8066093A70694CE6DECA2
:104050007CEC8CE49DEB77CFC12CD12C60E8E62E74
:104060006FEBF62E95CFC701B6010E940C2BE8CF5F
:104070002DEC3CEC4CEC5DEBC701B6010E94792BBA
:1040800087FF9ACE8091A306882309F495CE8150AC
:1040900091CEC701B6010E940C2BB0CE2AE037EDBD
:1040A00043E25CEBC501B4010E94792B87FFE8CEA7
:1040B00081E08093C8061092C906A7019601C3014A
:1040C000B2010E94792B20E030E040E05FE387FD01
:1040D00004C020E030E040E05FEBC301B2010E9489
:1040E0000D2B6093C0067093C1068093C206909317
:1040F000C3068091CD06882359F08091B9068F5F61
:104100008093B9068AE090E09093BB068093BA064C
:104110008091BA069091BB06009729F00197909381
:10412000BB068093BA068B819C819093A2068093F4
:10413000A10680902D0990902E091092DD0701EACA
:1041400016E0F12CE12C1C821B82772473943CE056
:10415000632E46E3542E58E0452ED801D5968D9116
:104160009C91D6978330910509F489C184309105DB
:1041700009F4A7C1029709F0B8C0DA968D919C9115
:10418000DB970196DB969C938E93DA97803E914065
:1041900089F5F80141AD842F90E05E9C90015F9C11
:1041A000300D1124649E200D311D11242F55394FDF
:1041B000F9017896D8019D964D915C919E974B5F41
:1041C0005F4F56A745A732969F964D915C91425FEF
:1041D0005F4F56A745A7BF967082319610822E5B1F
:1041E0003F4FF90140820196B1010E944C2ED80147
:1041F000D9968C93F80182AD93AD803D924091F5B4
:10420000D801D9964C91D997842F90E05E9C90016B
:104210005F9C300D1124649E200D311D11242F55FB
:10422000394FF90178969D964D915C919E97465F26
:104230005F4F56A745A732969F964D915C91475F79
:104240005F4F56A745A7BF967082319610822E5BAE
:104250003F4FF90140820196B1010E944C2ED801D6
:10426000D9968C93F80182AD93AD8438934091F543
:10427000D801D9964C91D997842F90E05E9C9001FB
:104280005F9C300D1124649E200D311D11242F558B
:10429000394FF90178969D964D915C919E974F5FAD
:1042A0005F4F56A745A732969F964D915C914A5F06
:1042B0005F4F56A745A7BF967082319610822E5B3E
:1042C0003F4FF90140820196B1010E944C2ED80166
:1042D000D9968C93F80182AD93AD8932954028F040
:1042E000D801D6963C922E92D5976801B1E4CB0EB8
:1042F000D11CB12CA12CF801FF96FE83ED83D601D1
:1043000018968C91882369F08D819E818A0D9B1D62
:104310000E942713F6018081863018F08185811173
:104320001086FCE0CF0ED11C2CE0A20EB11C34E2B2
:10433000A316B10421F7D801DC968D919C91DD97ED
:10434000009791F00197DD969C938E93DC97892BD3
:1043500059F4F801E65BFF4F70823C9670823C9600
:104360007082F80113AE12AED801D5962D913C9112
:10437000D6978091DD07DE969C91890F8093DD07AB
:10438000B5E08B1691041CF0F80113AE12AE243088
:10439000310514F03C832B83FFEFEF1AFF0A0A5C10
:1043A0001F4F25E0E216F10409F0D7CE10921F0945
:1043B00010921E090EED17E0B12CA12C88248A94CE
:1043C000982C82E0E82ED8011696FC901697FF20D4
:1043D00009F4DBC117968D919C9118978230910555
:1043E00009F4DCC008F095C0019709F4D4C0F12CA1
:1043F000C2C1AB81BC81B093A206A093A106C50146
:1044000062E170E00E94382E892B49F48091A90660
:104410009091AA0601969093AA068093A90680918E
:10442000A9069091AA0649970CF483CE1092B5067E
:10443000E6E0F0E0F0932E09E0932D091092420996
:10444000109241091092B7061092C0061092C10650
:104450001092C2061092C3061092C4061092C506AE
:104460001092C6061092C7061092C8061092C9068E
:104470001092CA0610922A090E94160BBBC4F801BA
:1044800082AD93AD019693AF82AF8930974030F003
:10449000E4E0F0E0D696FC93EE93D5970E94832A51
:1044A0006AE070E00E944C2E97FD079623E09595F8
:1044B00087952A95E1F7D801D4969C938E93D3974C
:1044C00014CFF80187A990AD019690AF87AB8370A8
:1044D0009927892B09F009CF83A994A9019694AB58
:1044E00083AB27A530A9820F931F853491050CF467
:1044F000FCCE25E030E036AB25ABE65BFF4F7082AB
:104500003C9670823C967082DB961C921E92DA97E3
:10451000ECCE8330910509F470C0049709F067CFA1
:10452000F801108A17868091BC069091BD0602970B
:1045300094878387C090BE06D090BF06B6010D2C2D
:10454000000C880B990B0E942D2C2091C0063091F5
:10455000C1064091C2065091C3060E940D2B20E077
:1045600030E040EE50E40E940C2B0E94F52BD80165
:104570001E967C936E931D97B3E0CB1AD1086C15F1
:104580007D052CF421E030E0F80130872783D80145
:104590001296EC922CCFF801168229CF51961C92DC
:1045A000C8010E942713F80127853089253131057C
:1045B0000CF01682D8018D919C9165E070E00E940C
:1045C000382E892B09F013CF2F5F3F4FF801308B26
:1045D0002787858596850184F285E02D22813381A8
:1045E00027503109821793070CF001CF0196D801AB
:1045F0001E969C938E931D97FACE1996ED91FC9181
:104600001A9780859185059719F416961C92EFCE1E
:104610008281938126813781820F931F0797F8014A
:1046200096878587C080D180B60190E080E00E94A7
:104630002B2C20E030E040E252E40E94832B20E06B
:1046400030E040E050E40E940D2B0E947E2B6D83F1
:104650007E838F83988720E030E040EA50E40E9418
:10466000212D2B013C0120E030E0A9010E941C2DEE
:1046700020E030E040E05FE387FDD6C0C301B20137
:104680000E940D2B0E94F52BD80150967C936E93BF
:104690001F97BFEFCB1ADB0AB60190E080E00E94C3
:1046A0002B2C20E030E040E252E40E94832B20E0FB
:1046B00030E040E050E40E940D2B0E947E2B9B01D5
:1046C000AC01DD24D3946D817E818F8198850E9419
:1046D0001C2D18160CF0D12CF801D18A82899389EF
:1046E000879708F484CEC8010E942713D801199631
:1046F000ED91FC918085918504970CF078CE8091A6
:10470000C806811174CE8091CA06811170CE20E056
:1047100030E0A9016091C0067091C1068091C20687
:104720009091C3060E941C2D18160CF060CE2091AB
:10473000BC063091BD06F801838594854785508974
:10474000840F951FA901415051098417950709F05D
:104750004ECEF1E0F093CA06E4E0F0E0D8011896FE
:10476000FC93EE9317971C963C932E931B975096B1
:104770001C921E921F97D80152968D919C9153972F
:10478000019653969C938E935297F801278130851A
:104790008681882349F080911E0990911F09019616
:1047A00090931F0980931E09F1104501232B71F48A
:1047B00080911E0990911F09019690931F09809383
:1047C0001E09D80118963C922E921797BFEFAB1A8C
:1047D000BB0A0C5E1F4FE0E1AE16B10409F0F3CD49
:1047E0008091B706882329F110E000E080912D091F
:1047F00090912E098530910509F40DC386309105FD
:1048000009F43EC3049709F0F5C22B813C812530A1
:10481000310509F097C030932E0920932D0910928D
:1048200044091092430928CEC301B2010E940C2B07
:1048300029CF8091B5068823B9F280912A0988236F
:1048400009F450C080E299E00E942713609120098A
:1048500070912109CB0183709927892B49F48091AC
:10486000260990912709019690932709809326099C
:1048700080912609909127098338910514F01092B0
:104880002A0990E080E00E942B2C20E030E048EFE5
:1048900051E40E94832B0E948E2D20E030E040E501
:1048A00051E40E94212D6B017C0120E030E0A90140
:1048B0000E941C2D20E030E040E05FE387FD0DC04A
:1048C000C701B6010E940D2B0E94F52B645F7F4F3C
:1048D000709329096093280987CFC701B6010E9408
:1048E0000C2BF2CF80912B0990912C09019790937A
:1048F0002C0980932B09892B09F076CF0E94832AFB
:1049000068E170E00E944C2E28ED3FEF281B390B28
:10491000309327092093260981E080932A09109279
:1049200021091092200980E699E090932C09809348
:104930002B098CE390E0909338098093370904E0C9
:1049400010E054CF8091B7068111E3C04B815C81A8
:104950004430510509F4A5C2892D8095881F882708
:10496000881F80933B095FEF8516950649F18AE021
:1049700090E09093BB068093BA0684E1889DF00195
:10498000899DF00D1124E951F84FE080F180D701A5
:1049900051968C915197815051968C93811110C0F2
:1049A0000E94832A68E770E00E944C2ECC96F701A3
:1049B000908B878781E090E09187808716861586A7
:1049C0008091370990913809009709F4AEC001979A
:1049D00090933809809337098091BA069091BB066D
:1049E000892B09F08BC08091B806843009F086C00D
:1049F0008091B606811182C0F090B906FF2009F4BB
:104A00007DC0E4EEF7E070E060E0808181115DC17F
:104A10002091A9063091AA064091A7065091A806B8
:104A2000E4E1E69FC001E79F900D1124FC01E252F2
:104A3000F84F61E066838F55994FDC01AC5BBE4F48
:104A400062E070E011967C936E93129666EA77E0CE
:104A500011967C936E93169611961C921E92149743
:104A6000485F5F4F11965C934E931296295F3F4FBC
:104A700011963C932E93159628EE33E02D933C939C
:104A8000835C9E4FDC011D921C92128280911E0954
:104A900090911F09019690931F0980931E09FA9423
:104AA000F092B90681E290E09093BB068093BA063B
:104AB00080912F099091300901969093300980934D
:104AC0002F0980913209815080933209811114C0DD
:104AD00080913109E82FF0E0E55DFE4F9181992347
:104AE00019F08F5F80933109E0913109F0E0E55DC5
:104AF000FE4F80818093320902E010E080912A0904
:104B0000882339F08091B706882309F4E6C0109213
:104B1000B5060230110509F4DBC108F0CDC1013042
:104B2000110511F40C94CA1C65C18091DD079091A8
:104B3000B906890F9927991FE0913109F0E0E55DE9
:104B4000FE4F20812817190609F00CF445CF8091FB
:104B50003309909134099C01215031093093340973
:104B600020933309892B09F037CF0E94832A64E010
:104B700070E00E944C2E9927E0913109F0E0E55D4C
:104B8000FE4F2081283008F090C022E036E3389FA5
:104B9000F001399FF00D1124EF55F94FE5A8F6A863
:104BA00033E0E316F1040CF089C066AD621708F03B
:104BB00085C027A530A909E310E0021B130BFC01F7
:104BC000E45CF64F408150E0485F5F4FA4EEB7E0F1
:104BD000F0E0E0E02C9121116AC074E17E9F900129
:104BE0007F9F300D1124D901A252B84F71E0169663
:104BF0007C9316972F55394FF901EC5BFE4F1182CC
:104C0000108269017AEBC71A7EEFD70A76E3789FA4
:104C10005001799FB00C1124F501E253F94F5F0167
:104C2000F601B182A08236961182108234975183A8
:104C30004083329611830083359611821082235C63
:104C40003E4FF9011182108212961C9220911E098A
:104C500030911F092F5F3F4F30931F0920931E098A
:104C600026E3289FF001299FF00D1124EF55F94FFD
:104C70006F5F66AF22E0E216F10421F082E090E07F
:104C800096AB85AB00913509109136090E94832AB5
:104C900068E770E00E94382E800F911F90933409CE
:104CA0008093330903E010E097CE23E06FCF319675
:104CB0005496E031F10509F08DCFD2CF81E090E03C
:104CC000909334098093330987CE6F5F7F4F74963A
:104CD0006031710509F099CEE2CE6091260970919C
:104CE0002709072E000C880B990B0E942D2C20E021
:104CF00030E040EB50E40E940D2B0E94F52B2091F8
:104D0000A7063091A806265F3F4F7B01E21AF30AFF
:104D10006091280970912909072E000C880B990BC6
:104D20000E942D2C20E030E040EB50E40E940D2B3F
:104D30000E94F52B2091A9063091AA062A5F3F4FC9
:104D4000621B730BEE9CC001EF9C900D900D112423
:104D5000669F9001679F300D300D1124BC01620FDA
:104D6000731F072E000C880B990B0E942D2C0E949C
:104D70009C2D6B017C0120E030E048E251E40E9470
:104D8000792B881F8827881F8093B70620E030E0A2
:104D900048E251E4C701B6010E94792B87FFB9CEE2
:104DA00010922A091092A2061092A1061092C00633
:104DB0001092C1061092C2061092C3061092C40649
:104DC0001092C5061092C6061092C7061092C80629
:104DD0001092C9061092CA06E4EEF7E084E299E068
:104DE000218132812430310509F4108274968E17A6
:104DF0009F07B1F78091370990913809892B09F005
:104E00007FC080913B09882309F46CC080EB9CE053
:104E10000E94E30B75C080914309909144099C0165
:104E20002F5F3F4F30934409209343098937910501
:104E300008F31092B506E6E0F0E0F0932E09E09357
:104E40002D0910924209109241091092B706109252
:104E5000C0061092C1061092C2061092C3061092AC
:104E6000C4061092C5061092C6061092C70610928C
:104E7000C8061092C9061092CA0610922A09BACF23
:104E800080914109909142099C012F5F3F4F3093DF
:104E9000420920934109853A914008F4ABCF0C9424
:104EA000CA1C0E94832A6CE370E00E944C2E805B37
:104EB0009F4F0E94C70B9ECF0330110581F086ECF7
:104EC0009CE00430110509F095CF0E94E30B92CFCE
:104ED0008091120281118ECF82E79DE0F6CF88E5A6
:104EE0009DE0F3CF8091CD06882319F08EE99CE0F8
:104EF0008FCF8091C906882309F42CC10E94160B1C
:104F00000E94AC1180912A098823C9F0E0912209FE
:104F1000F0E0EE0FFF1FE259FE4F609128097091FB
:104F20002909CC24C394E0800CE11CE020E04AE68F
:104F30005CE080912609909127090E94DF0D0E9474
:104F400075110E94E40F70EEA72E77E0B72EE0E215
:104F50008E2EE9E09E2ED50114968C91149788230D
:104F6000A9F115968D919C91169702977CF1509618
:104F70008D919C918732910530F466E070E00E943B
:104F8000382E039718F1D5011F96EC911F97EE0F5D
:104F9000EE0F8C91E80FF0E0EE0FFF1FE25AFE4F8C
:104FA0001B966D917C911C97772719968C91199778
:104FB0001D969C91890FCC24C394E08006EF1BE0E2
:104FC00020E046E15CE090E00E94DF0DB4E1AB0E32
:104FD000B11C8A149B0409F0BECF8091B5068823CA
:104FE00009F4F7C18091A1069091A2062091B7061D
:104FF000222319F08F359105E8F49695879566E0A0
:1050000070E00E94382EFC01EE0FFF1FEE5AFE4F9B
:105010006091A9067091AA06CC24C394E0800BE8A5
:105020001BE020E04FED5BE08091A7069091A80681
:105030000E94DF0D8091B7068111B4C0E091A306F4
:10504000F0E0EE0FFF1FEC5BFE4F6091A906709140
:10505000AA066C5F7F4FCC24C394E08001EE1AE077
:1050600020E044E75BE08091A7069091A8060E94AB
:10507000DF0D10E003E0812E912CB12CA12CC0900B
:10508000C006D090C106E090C206F090C30620E0B2
:1050900030E0A901C701B6010E941C2D20E030E0DC
:1050A00040E05FE387FD74C0C701B6010E940D2B8D
:1050B0000E94F52B86169706A806B9060CF089C142
:1050C000812F602F0E942C2E992369F06091BE06DB
:1050D0007091BF06610F711D40E08091BC069091F8
:1050E000BD060E94BC0E112399F1C090C006D0905D
:1050F000C106E090C206F090C30620E030E0A901AE
:10510000C701B6010E941C2D20E030E040E05FE3C3
:1051100087FD43C0C701B6010E940D2B0E94F52BED
:10512000615071098109910986169706A806B9068A
:1051300079F46091BE067091BF06610F711D809178
:10514000BC069091BD0620E043E001970E94790ED5
:105150001F5F91CF8091C806882309F4D1CE80913A
:1051600012028111CDCE20E030E0A9016091C40689
:105170007091C5068091C6069091C7060E94792B52
:10518000811103C084E99CE043CE86E89CE040CED8
:10519000C701B6010E940C2B8BCFC701B6010E943C
:1051A0000C2BBCCFA090A106B090A206B50190E058
:1051B00080E00E942B2C2B013C0120E030E040EFEE
:1051C00052E40E94832B9B01AC0166E676E686EAF8
:1051D0009FE30E940C2B6B017C012DEC3CEC4CEC12
:1051E0005DE30E94792B87FD3FC12DEC3CEC4CE444
:1051F0005EE3C701B6010E941C2D18160CF034C1E5
:105200008091A30618E0833008F018EFC5016EE026
:1052100070E00E94382E062F20E030E040E05FE38F
:10522000C301B2010E94212D0E948E2D20E030E0AA
:1052300040EC50E40E94212DA70196010E94212DEF
:105240004B015C0120E030E0A9010E941C2D1816E2
:105250000CF0FEC0C501B4010E94FC2B962EB0904C
:10526000A906E8E0BE0EB00EA090A7060E94832A11
:10527000B1010E944C2E99E09A0D20E0492D6B2D32
:10528000890F0E94BF1120E030E040E850E4C701E0
:10529000B6010E94212D20E030E040E85FE30E944B
:1052A0001C2D18160CF040C06091A1067091A2064A
:1052B00090E080E00E942B2C20E030E040E85EE3AC
:1052C0000E94212D0E948E2D20E030E040E850E425
:1052D0000E94212DA70196010E94212D4B015C0106
:1052E00020E030E0A9010E941C2D18160CF0B4C07B
:1052F000C501B4010E94FC2B962E8091A90698E06E
:10530000B92EB80E8091A70628E0A22EA80E0E9402
:10531000832A65E070E00E944C2E1A0D20E0492D92
:105320006B2D810F0E94BF1120E030E040E450E47B
:10533000C701B6010E94212D20E030E040E85FE384
:105340000E941C2D1816DCF56091A1067091A20632
:1053500090E080E00E942B2C20E030E040E450E41C
:105360000E94832B0E948E2D20E030E040EE50E41E
:105370000E94212DA70196010E94212D6B017C0125
:1053800020E030E0A9010E941C2D18160CF068C026
:10539000C701B6010E94FC2BF62E809128098A5F76
:1053A000080F109126090E94832A1B5FB1010E94F9
:1053B0004C2E20E04F2D602F810F0E94BF110E94C4
:1053C000832A60EA70E00E944C2E805B9F4F0E940F
:1053D000C70B80912D0990912E09069711F00C941E
:1053E000491D8091410990914209CC97B9F487EA0F
:1053F0009AE00E94E30B80912F099091300920914F
:10540000390930913A092817390740F490933A093D
:105410008093390989E399E00E94791380914109C9
:1054200090914209CD978B32914010F00C94971BCC
:1054300020E04FEB51E067E188E20E94401320E05A
:105440004CEF51E067E183E40E9440130C94971BFA
:10545000C501B401905800CFC501B40190584ACF9E
:10546000C701B601905896CF0E94160BB2CF8F920B
:105470009F92AF92BF92CF92DF92EF92FF92CF9323
:10548000DF93EC01688179818A819B8161157105C7
:105490008105910521F464E279ED8BE597E02DE13A
:1054A00033EF41E050E00E94A92A49015A019B01D3
:1054B000AC01A7EAB1E40E94C82A6B017C01ACEE02
:1054C000B4EFA50194010E94D62ADC01CB018C0D1A
:1054D0009D1DAE1DBF1DB7FF03C00197A109B048B8
:1054E00088839983AA83BB839F77DF91CF91FF90B5
:1054F000EF90DF90CF90BF90AF909F908F900895E6
:105500000E94372A08958EE091E00E94372A08957C
:10551000B0E0A0E080930E0190930F01A0931001E2
:10552000B09311010895F999FECF92BD81BDF89A0B
:10553000992780B50895262FF999FECF1FBA92BDFD
:1055400081BD20BD0FB6F894FA9AF99A0FBE019664
:105550000895052E97FB1EF400940E94C02A57FD63
:1055600007D00E94DB2A07FC03D04EF40C94C02A1B
:1055700050954095309521953F4F4F4F5F4F08957F
:1055800090958095709561957F4F8F4F9F4F0895AF
:105590000E94FD2AA59F900DB49F900DA49F800DA1
:1055A000911D11240895B7FF0C94C82A0E94C82A9F
:1055B000821B930B0895A1E21A2EAA1BBB1BFD01AF
:1055C0000DC0AA1FBB1FEE1FFF1FA217B307E407E2
:1055D000F50720F0A21BB30BE40BF50B661F771F3A
:1055E000881F991F1A9469F760957095809590951A
:1055F0009B01AC01BD01CF010895A29FB001B39FF3
:10560000C001A39F700D811D1124911DB29F700DCB
:10561000811D1124911D08955058BB27AA270E946F
:10562000242B0C94CE2C0E94952C38F00E949C2C9C
:1056300020F039F49F3F19F426F40C94922C0EF4C8
:10564000E095E7FB0C948C2CE92F0E94F32C58F387
:10565000BA17620773078407950720F079F4A6F557
:105660000C94152D0EF4E0950B2EBA2FA02D0B01E6
:10567000B90190010C01CA01A0011124FF27591B97
:1056800099F0593F50F4503E68F11A16F040A22F9D
:10569000232F342F4427585FF3CF4695379527950E
:1056A000A795F0405395C9F77EF41F16BA0B620B0D
:1056B000730B840BBAF09150A1F0FF0FBB1F661F54
:1056C000771F881FC2F70EC0BA0F621F731F841F97
:1056D00048F4879577956795B795F7959E3F08F0BD
:1056E000B0CF9395880F08F09927EE0F979587957F
:1056F00008950E94682C08F481E008950E94A52C6A
:10570000E3950C94DF2C0E94972B0C94CE2C0E94D6
:105710009C2C58F00E94952C40F029F45F3F29F012
:105720000C948C2C51110C94162D0C94922C0E94DC
:10573000F32C68F39923B1F3552391F3951B550B83
:10574000BB27AA2762177307840738F09F5F5F4F54
:10575000220F331F441FAA1FA9F335D00E2E3AF093
:10576000E0E832D091505040E695001CCAF72BD0AB
:10577000FE2F29D0660F771F881FBB1F26173707FC
:105780004807AB07B0E809F0BB0B802DBF01FF272E
:1057900093585F4F3AF09E3F510578F00C948C2C53
:1057A0000C94162D5F3FE4F3983ED4F386957795DD
:1057B0006795B795F7959F5FC9F7880F911D9695E7
:1057C000879597F90895E1E0660F771F881FBB1F43
:1057D000621773078407BA0720F0621B730B840BF0
:1057E000BA0BEE1F88F7E09508950E94FC2B689491
:1057F000B1110C94162D08950E94FB2C88F09F5730
:1058000098F0B92F9927B751B0F0E1F0660F771FE4
:10581000881F991F1AF0BA95C9F714C0B13091F0DA
:105820000E94152DB1E008950C94152D672F782F47
:105830008827B85F39F0B93FCCF38695779567959F
:10584000B395D9F73EF490958095709561957F4F0B
:105850008F4F9F4F0895E89409C097FB3EF49095B1
:105860008095709561957F4F8F4F9F4F9923A9F039
:10587000F92F96E9BB279395F695879577956795C8
:10588000B795F111F8CFFAF4BB0F11F460FF1BC00C
:105890006F5F7F4F8F4F9F4F16C0882311F096E99F
:1058A00011C0772321F09EE8872F762F05C066234D
:1058B00071F096E8862F70E060E02AF09A95660F06
:1058C000771F881FDAF7880F9695879597F90895BF
:1058D000990F0008550FAA0BE0E8FEEF1616170601
:1058E000E807F907C0F012161306E407F50798F069
:1058F000621B730B840B950B39F40A2661F0232B82
:10590000242B252B21F408950A2609F4A140A695FD
:105910008FEF811D811D089597F99F6780E870E0E2
:1059200060E008959FEF80EC089500240A94161615
:10593000170618060906089500240A94121613067D
:105940001406050608950C94922C0E94FB2CD8F3A3
:10595000E894E0E0BB279F57F0F02AED3FE049ECE8
:1059600006C0EE0FBB0F661F771F881F28F0B23AE4
:1059700062077307840728F0B25A620B730B840B1B
:10598000E3959A9572F7803830F49A95BB0F661FAD
:10599000771F881FD2F790480C94DE2D092E0394B0
:1059A000000C11F4882352F0BB0F40F4BF2B11F40C
:1059B00060FF04C06F5F7F4F8F4F9F4F0895EF933D
:1059C000E0FF07C0A2EA2AED3FE049EC5FEB0E944E
:1059D000242B0E94CE2C0F90039401FC9058ECEAEB
:1059E000F0E00C94F12D57FD9058440F551F59F0DD
:1059F0005F3F71F04795880F97FB991F61F09F3FBC
:105A000079F087950895121613061406551FF2CFE4
:105A10004695F1DF08C0161617061806991FF1CF34
:105A200086957105610508940895E894BB2766275B
:105A30007727CB0197F908950E94682C08F48FEF1F
:105A400008950E94342D0C94CE2C0E94952C38F091
:105A50000E949C2C20F0952311F00C948C2C0C941B
:105A6000922C11240C94162D0E94F32C70F3959F08
:105A7000C1F3950F50E0551F629FF001729FBB2745
:105A8000F00DB11D639FAA27F00DB11DAA1F649FE1
:105A90006627B00DA11D661F829F2227B00DA11D94
:105AA000621F739FB00DA11D621F839FA00D611D1A
:105AB000221F749F3327A00D611D231F849F600D3B
:105AC000211D822F762F6A2F11249F5750409AF064
:105AD000F1F088234AF0EE0FFF1FBB1F661F771FF0
